{
  "contractName": "KeyManagerContract",
  "abi": [
    {
      "inputs": [],
      "stateMutability": "nonpayable",
      "type": "constructor"
    },
    {
      "anonymous": false,
      "inputs": [
        {
          "indexed": false,
          "internalType": "uint256",
          "name": "id",
          "type": "uint256"
        }
      ],
      "name": "KeyCreated",
      "type": "event"
    },
    {
      "inputs": [
        {
          "internalType": "address",
          "name": "entityAddress",
          "type": "address"
        },
        {
          "components": [
            {
              "internalType": "string",
              "name": "title",
              "type": "string"
            },
            {
              "internalType": "string",
              "name": "user",
              "type": "string"
            },
            {
              "internalType": "string",
              "name": "password",
              "type": "string"
            },
            {
              "internalType": "string",
              "name": "note",
              "type": "string"
            }
          ],
          "internalType": "struct KeyManagerContract.Key",
          "name": "data",
          "type": "tuple"
        }
      ],
      "name": "createKey",
      "outputs": [],
      "stateMutability": "nonpayable",
      "type": "function"
    },
    {
      "inputs": [
        {
          "internalType": "address",
          "name": "entityAddress",
          "type": "address"
        }
      ],
      "name": "getKeys",
      "outputs": [
        {
          "components": [
            {
              "internalType": "string",
              "name": "title",
              "type": "string"
            },
            {
              "internalType": "string",
              "name": "user",
              "type": "string"
            },
            {
              "internalType": "string",
              "name": "password",
              "type": "string"
            },
            {
              "internalType": "string",
              "name": "note",
              "type": "string"
            }
          ],
          "internalType": "struct KeyManagerContract.Key[]",
          "name": "",
          "type": "tuple[]"
        }
      ],
      "stateMutability": "view",
      "type": "function",
      "constant": true
    },
    {
      "inputs": [
        {
          "internalType": "address",
          "name": "entityAddress",
          "type": "address"
        },
        {
          "internalType": "uint256",
          "name": "rowIndex",
          "type": "uint256"
        },
        {
          "components": [
            {
              "internalType": "string",
              "name": "title",
              "type": "string"
            },
            {
              "internalType": "string",
              "name": "user",
              "type": "string"
            },
            {
              "internalType": "string",
              "name": "password",
              "type": "string"
            },
            {
              "internalType": "string",
              "name": "note",
              "type": "string"
            }
          ],
          "internalType": "struct KeyManagerContract.Key",
          "name": "data",
          "type": "tuple"
        }
      ],
      "name": "updateKey",
      "outputs": [],
      "stateMutability": "nonpayable",
      "type": "function"
    },
    {
      "inputs": [
        {
          "internalType": "address",
          "name": "entityAddress",
          "type": "address"
        },
        {
          "internalType": "uint256",
          "name": "rowIndex",
          "type": "uint256"
        }
      ],
      "name": "deleteKey",
      "outputs": [],
      "stateMutability": "nonpayable",
      "type": "function"
    }
  ],
  "bytecode": "0x608060405234801561001057600080fd5b50611113806100206000396000f3fe608060405234801561001057600080fd5b506004361061004c5760003560e01c806334e80c341461005157806378cb9568146100815780639c4d76f51461009d578063f3741be7146100b9575b600080fd5b61006b60048036038101906100669190610a08565b6100d5565b6040516100789190610c08565b60405180910390f35b61009b60048036038101906100969190610e87565b6103ba565b005b6100b760048036038101906100b29190610ef6565b610495565b005b6100d360048036038101906100ce9190610f36565b6106cc565b005b60606000808373ffffffffffffffffffffffffffffffffffffffff1673ffffffffffffffffffffffffffffffffffffffff168152602001908152602001600020805480602002602001604051908101604052809291908181526020016000905b828210156103af578382906000526020600020906004020160405180608001604052908160008201805461016890610fc1565b80601f016020809104026020016040519081016040528092919081815260200182805461019490610fc1565b80156101e15780601f106101b6576101008083540402835291602001916101e1565b820191906000526020600020905b8154815290600101906020018083116101c457829003601f168201915b505050505081526020016001820180546101fa90610fc1565b80601f016020809104026020016040519081016040528092919081815260200182805461022690610fc1565b80156102735780601f1061024857610100808354040283529160200191610273565b820191906000526020600020905b81548152906001019060200180831161025657829003601f168201915b5050505050815260200160028201805461028c90610fc1565b80601f01602080910402602001604051908101604052809291908181526020018280546102b890610fc1565b80156103055780601f106102da57610100808354040283529160200191610305565b820191906000526020600020905b8154815290600101906020018083116102e857829003601f168201915b5050505050815260200160038201805461031e90610fc1565b80601f016020809104026020016040519081016040528092919081815260200182805461034a90610fc1565b80156103975780601f1061036c57610100808354040283529160200191610397565b820191906000526020600020905b81548152906001019060200180831161037a57829003601f168201915b50505050508152505081526020019060010190610135565b505050509050919050565b806000808573ffffffffffffffffffffffffffffffffffffffff1673ffffffffffffffffffffffffffffffffffffffff168152602001908152602001600020838154811061040b5761040a610ff2565b5b90600052602060002090600402016000820151816000019080519060200190610435929190610826565b506020820151816001019080519060200190610452929190610826565b50604082015181600201908051906020019061046f929190610826565b50606082015181600301908051906020019061048c929190610826565b50905050505050565b6000808373ffffffffffffffffffffffffffffffffffffffff1673ffffffffffffffffffffffffffffffffffffffff16815260200190815260200160002060016000808573ffffffffffffffffffffffffffffffffffffffff1673ffffffffffffffffffffffffffffffffffffffff168152602001908152602001600020805490506105219190611050565b8154811061053257610531610ff2565b5b90600052602060002090600402016000808473ffffffffffffffffffffffffffffffffffffffff1673ffffffffffffffffffffffffffffffffffffffff16815260200190815260200160002082815481106105905761058f610ff2565b5b906000526020600020906004020160008201816000019080546105b290610fc1565b6105bd9291906108ac565b5060018201816001019080546105d290610fc1565b6105dd9291906108ac565b5060028201816002019080546105f290610fc1565b6105fd9291906108ac565b50600382018160030190805461061290610fc1565b61061d9291906108ac565b509050506000808373ffffffffffffffffffffffffffffffffffffffff1673ffffffffffffffffffffffffffffffffffffffff16815260200190815260200160002080548061066f5761066e611084565b5b6001900381819060005260206000209060040201600080820160006106949190610939565b6001820160006106a49190610939565b6002820160006106b49190610939565b6003820160006106c49190610939565b505090555050565b6000808373ffffffffffffffffffffffffffffffffffffffff1673ffffffffffffffffffffffffffffffffffffffff1681526020019081526020016000208190806001815401808255809150506001900390600052602060002090600402016000909190919091506000820151816000019080519060200190610750929190610826565b50602082015181600101908051906020019061076d929190610826565b50604082015181600201908051906020019061078a929190610826565b5060608201518160030190805190602001906107a7929190610826565b5050507f071498e8fbc4d0ca90f8ef4f0cf735176cb5cedf67e17b6ec31a3b5e4bff29786000808473ffffffffffffffffffffffffffffffffffffffff1673ffffffffffffffffffffffffffffffffffffffff1681526020019081526020016000208054905060405161081a91906110c2565b60405180910390a15050565b82805461083290610fc1565b90600052602060002090601f016020900481019282610854576000855561089b565b82601f1061086d57805160ff191683800117855561089b565b8280016001018555821561089b579182015b8281111561089a57825182559160200191906001019061087f565b5b5090506108a89190610979565b5090565b8280546108b890610fc1565b90600052602060002090601f0160209004810192826108da5760008555610928565b82601f106108eb5780548555610928565b8280016001018555821561092857600052602060002091601f016020900482015b8281111561092757825482559160010191906001019061090c565b5b5090506109359190610979565b5090565b50805461094590610fc1565b6000825580601f106109575750610976565b601f0160209004906000526020600020908101906109759190610979565b5b50565b5b8082111561099257600081600090555060010161097a565b5090565b6000604051905090565b600080fd5b600080fd5b600073ffffffffffffffffffffffffffffffffffffffff82169050919050565b60006109d5826109aa565b9050919050565b6109e5816109ca565b81146109f057600080fd5b50565b600081359050610a02816109dc565b92915050565b600060208284031215610a1e57610a1d6109a0565b5b6000610a2c848285016109f3565b91505092915050565b600081519050919050565b600082825260208201905092915050565b6000819050602082019050919050565b600081519050919050565b600082825260208201905092915050565b60005b83811015610a9b578082015181840152602081019050610a80565b83811115610aaa576000848401525b50505050565b6000601f19601f8301169050919050565b6000610acc82610a61565b610ad68185610a6c565b9350610ae6818560208601610a7d565b610aef81610ab0565b840191505092915050565b60006080830160008301518482036000860152610b178282610ac1565b91505060208301518482036020860152610b318282610ac1565b91505060408301518482036040860152610b4b8282610ac1565b91505060608301518482036060860152610b658282610ac1565b9150508091505092915050565b6000610b7e8383610afa565b905092915050565b6000602082019050919050565b6000610b9e82610a35565b610ba88185610a40565b935083602082028501610bba85610a51565b8060005b85811015610bf65784840389528151610bd78582610b72565b9450610be283610b86565b925060208a01995050600181019050610bbe565b50829750879550505050505092915050565b60006020820190508181036000830152610c228184610b93565b905092915050565b6000819050919050565b610c3d81610c2a565b8114610c4857600080fd5b50565b600081359050610c5a81610c34565b92915050565b600080fd5b7f4e487b7100000000000000000000000000000000000000000000000000000000600052604160045260246000fd5b610c9d82610ab0565b810181811067ffffffffffffffff82111715610cbc57610cbb610c65565b5b80604052505050565b6000610ccf610996565b9050610cdb8282610c94565b919050565b600080fd5b600080fd5b600080fd5b600067ffffffffffffffff821115610d0a57610d09610c65565b5b610d1382610ab0565b9050602081019050919050565b82818337600083830152505050565b6000610d42610d3d84610cef565b610cc5565b905082815260208101848484011115610d5e57610d5d610cea565b5b610d69848285610d20565b509392505050565b600082601f830112610d8657610d85610ce5565b5b8135610d96848260208601610d2f565b91505092915050565b600060808284031215610db557610db4610c60565b5b610dbf6080610cc5565b9050600082013567ffffffffffffffff811115610ddf57610dde610ce0565b5b610deb84828501610d71565b600083015250602082013567ffffffffffffffff811115610e0f57610e0e610ce0565b5b610e1b84828501610d71565b602083015250604082013567ffffffffffffffff811115610e3f57610e3e610ce0565b5b610e4b84828501610d71565b604083015250606082013567ffffffffffffffff811115610e6f57610e6e610ce0565b5b610e7b84828501610d71565b60608301525092915050565b600080600060608486031215610ea057610e9f6109a0565b5b6000610eae868287016109f3565b9350506020610ebf86828701610c4b565b925050604084013567ffffffffffffffff811115610ee057610edf6109a5565b5b610eec86828701610d9f565b9150509250925092565b60008060408385031215610f0d57610f0c6109a0565b5b6000610f1b858286016109f3565b9250506020610f2c85828601610c4b565b9150509250929050565b60008060408385031215610f4d57610f4c6109a0565b5b6000610f5b858286016109f3565b925050602083013567ffffffffffffffff811115610f7c57610f7b6109a5565b5b610f8885828601610d9f565b9150509250929050565b7f4e487b7100000000000000000000000000000000000000000000000000000000600052602260045260246000fd5b60006002820490506001821680610fd957607f821691505b602082108103610fec57610feb610f92565b5b50919050565b7f4e487b7100000000000000000000000000000000000000000000000000000000600052603260045260246000fd5b7f4e487b7100000000000000000000000000000000000000000000000000000000600052601160045260246000fd5b600061105b82610c2a565b915061106683610c2a565b92508282101561107957611078611021565b5b828203905092915050565b7f4e487b7100000000000000000000000000000000000000000000000000000000600052603160045260246000fd5b6110bc81610c2a565b82525050565b60006020820190506110d760008301846110b3565b9291505056fea26469706673582212209899dbaed7d5b750027bf903fc399fed4eccc772c10bf239e03c48fa0620941864736f6c634300080d0033",
  "immutableReferences": {},
  "source": "// SPDX-License-Identifier: MIT\npragma solidity ^0.8.13; // version del lenguaje usado\n\ncontract KeyManagerContract {\n    constructor() {}\n\n    event KeyCreated(\n        uint256 id\n    );\n\n    struct Key {\n        // tipo de dato\n        string title;\n        string user;    \n        string password;\n        string note;\n    }\n\n    mapping(address => Key[]) internal keys; // estructura de datos parecida al diccionario\n\n    function createKey(\n        address entityAddress, Key memory data) public {\n        keys[entityAddress].push(data);\n        emit KeyCreated(keys[entityAddress].length);\n    }\n\n    function getKeys(address entityAddress) public view returns (Key[] memory) {\n        return keys[entityAddress];\n    }\n\n    function updateKey(address entityAddress, uint rowIndex, Key memory data) public {\n        keys[entityAddress][rowIndex] =  data;\n    }\n\n    function deleteKey(address entityAddress, uint rowIndex) public {\n        keys[entityAddress][rowIndex] = keys[entityAddress][keys[entityAddress].length - 1];\n        keys[entityAddress].pop();\n    }\n    \n}\n",
  "sourcePath": "/home/galaoox/develop/keys-cripto-poly/Blockchain/contracts/KeyManagerContract.sol",
  "compiler": {
    "name": "solc",
    "version": "0.8.13+commit.abaa5c0e.Emscripten.clang"
  },
  "schemaVersion": "3.4.10",
  "updatedAt": "2022-11-05T15:01:10.492Z",
  "networkType": "ethereum",
  "devdoc": {
    "kind": "dev",
    "methods": {},
    "version": 1
  },
  "userdoc": {
    "kind": "user",
    "methods": {},
    "version": 1
  }
}