{
  "contractName": "TasksContract",
  "abi": [
    {
      "inputs": [],
      "stateMutability": "nonpayable",
      "type": "constructor"
    },
    {
      "anonymous": false,
      "inputs": [
        {
          "indexed": false,
          "internalType": "uint256",
          "name": "id",
          "type": "uint256"
        },
        {
          "indexed": false,
          "internalType": "string",
          "name": "title",
          "type": "string"
        },
        {
          "indexed": false,
          "internalType": "string",
          "name": "description",
          "type": "string"
        },
        {
          "indexed": false,
          "internalType": "bool",
          "name": "done",
          "type": "bool"
        },
        {
          "indexed": false,
          "internalType": "uint256",
          "name": "createdAt",
          "type": "uint256"
        }
      ],
      "name": "TaskCreated",
      "type": "event"
    },
    {
      "anonymous": false,
      "inputs": [
        {
          "indexed": false,
          "internalType": "uint256",
          "name": "id",
          "type": "uint256"
        },
        {
          "indexed": false,
          "internalType": "bool",
          "name": "done",
          "type": "bool"
        }
      ],
      "name": "TaskToggleDone",
      "type": "event"
    },
    {
      "inputs": [],
      "name": "taskCounter",
      "outputs": [
        {
          "internalType": "uint256",
          "name": "",
          "type": "uint256"
        }
      ],
      "stateMutability": "view",
      "type": "function",
      "constant": true
    },
    {
      "inputs": [
        {
          "internalType": "uint256",
          "name": "",
          "type": "uint256"
        }
      ],
      "name": "tasks",
      "outputs": [
        {
          "internalType": "uint256",
          "name": "id",
          "type": "uint256"
        },
        {
          "internalType": "string",
          "name": "title",
          "type": "string"
        },
        {
          "internalType": "string",
          "name": "description",
          "type": "string"
        },
        {
          "internalType": "bool",
          "name": "done",
          "type": "bool"
        },
        {
          "internalType": "uint256",
          "name": "createdAt",
          "type": "uint256"
        }
      ],
      "stateMutability": "view",
      "type": "function",
      "constant": true
    },
    {
      "inputs": [
        {
          "internalType": "string",
          "name": "_title",
          "type": "string"
        },
        {
          "internalType": "string",
          "name": "_description",
          "type": "string"
        }
      ],
      "name": "createTask",
      "outputs": [],
      "stateMutability": "nonpayable",
      "type": "function"
    },
    {
      "inputs": [
        {
          "internalType": "uint256",
          "name": "_id",
          "type": "uint256"
        }
      ],
      "name": "toggleDone",
      "outputs": [],
      "stateMutability": "nonpayable",
      "type": "function"
    }
  ],
  "bytecode": "0x6080604052600080553480156200001557600080fd5b50620000926040518060400160405280600a81526020017f54657374207469746c65000000000000000000000000000000000000000000008152506040518060400160405280601081526020017f54657374206465736372697074696f6e000000000000000000000000000000008152506200009860201b60201c565b6200049c565b60006040518060a00160405280600054815260200184815260200183815260200160001515815260200142815250905080600160008054815260200190815260200160002060008201518160000155602082015181600101908051906020019062000105929190620001c5565b50604082015181600201908051906020019062000124929190620001c5565b5060608201518160030160006101000a81548160ff021916908315150217905550608082015181600401559050506000808154809291906200016690620002ae565b91905055507f6549102bed7d1bb5ec529ee14e2ca60ffc1f47f66d4cc6ca713220613cc64c2581600001518260200151836040015184606001518560800151604051620001b8959493929190620003cd565b60405180910390a1505050565b828054620001d39062000467565b90600052602060002090601f016020900481019282620001f7576000855562000243565b82601f106200021257805160ff191683800117855562000243565b8280016001018555821562000243579182015b828111156200024257825182559160200191906001019062000225565b5b50905062000252919062000256565b5090565b5b808211156200027157600081600090555060010162000257565b5090565b7f4e487b7100000000000000000000000000000000000000000000000000000000600052601160045260246000fd5b6000819050919050565b6000620002bb82620002a4565b91507fffffffffffffffffffffffffffffffffffffffffffffffffffffffffffffffff8203620002f057620002ef62000275565b5b600182019050919050565b6200030681620002a4565b82525050565b600081519050919050565b600082825260208201905092915050565b60005b83811015620003485780820151818401526020810190506200032b565b8381111562000358576000848401525b50505050565b6000601f19601f8301169050919050565b60006200037c826200030c565b62000388818562000317565b93506200039a81856020860162000328565b620003a5816200035e565b840191505092915050565b60008115159050919050565b620003c781620003b0565b82525050565b600060a082019050620003e46000830188620002fb565b8181036020830152620003f881876200036f565b905081810360408301526200040e81866200036f565b90506200041f6060830185620003bc565b6200042e6080830184620002fb565b9695505050505050565b7f4e487b7100000000000000000000000000000000000000000000000000000000600052602260045260246000fd5b600060028204905060018216806200048057607f821691505b60208210810362000496576200049562000438565b5b50919050565b610ae980620004ac6000396000f3fe608060405234801561001057600080fd5b506004361061004c5760003560e01c8063292a458514610051578063586717301461006d5780638d9776721461008b578063d81ef739146100bf575b600080fd5b61006b600480360381019061006691906107aa565b6100db565b005b610075610200565b604051610082919061083b565b60405180910390f35b6100a560048036038101906100a09190610882565b610206565b6040516100b6959493929190610952565b60405180910390f35b6100d960048036038101906100d49190610882565b610359565b005b60006040518060a0016040528060005481526020018481526020018381526020016000151581526020014281525090508060016000805481526020019081526020016000206000820151816000015560208201518160010190805190602001906101469291906105ad565b5060408201518160020190805190602001906101639291906105ad565b5060608201518160030160006101000a81548160ff021916908315150217905550608082015181600401559050506000808154809291906101a3906109e2565b91905055507f6549102bed7d1bb5ec529ee14e2ca60ffc1f47f66d4cc6ca713220613cc64c25816000015182602001518360400151846060015185608001516040516101f3959493929190610952565b60405180910390a1505050565b60005481565b600160205280600052604060002060009150905080600001549080600101805461022f90610a59565b80601f016020809104026020016040519081016040528092919081815260200182805461025b90610a59565b80156102a85780601f1061027d576101008083540402835291602001916102a8565b820191906000526020600020905b81548152906001019060200180831161028b57829003601f168201915b5050505050908060020180546102bd90610a59565b80601f01602080910402602001604051908101604052809291908181526020018280546102e990610a59565b80156103365780601f1061030b57610100808354040283529160200191610336565b820191906000526020600020905b81548152906001019060200180831161031957829003601f168201915b5050505050908060030160009054906101000a900460ff16908060040154905085565b6000600160008381526020019081526020016000206040518060a00160405290816000820154815260200160018201805461039390610a59565b80601f01602080910402602001604051908101604052809291908181526020018280546103bf90610a59565b801561040c5780601f106103e15761010080835404028352916020019161040c565b820191906000526020600020905b8154815290600101906020018083116103ef57829003601f168201915b5050505050815260200160028201805461042590610a59565b80601f016020809104026020016040519081016040528092919081815260200182805461045190610a59565b801561049e5780601f106104735761010080835404028352916020019161049e565b820191906000526020600020905b81548152906001019060200180831161048157829003601f168201915b505050505081526020016003820160009054906101000a900460ff161515151581526020016004820154815250509050806060015115816060019015159081151581525050806001600084815260200190815260200160002060008201518160000155602082015181600101908051906020019061051d9291906105ad565b50604082015181600201908051906020019061053a9291906105ad565b5060608201518160030160006101000a81548160ff021916908315150217905550608082015181600401559050507f389dee00d487dd41dd5bf0f43eeaa5b663b3af022d52368df89d388150295f45816000015182606001516040516105a1929190610a8a565b60405180910390a15050565b8280546105b990610a59565b90600052602060002090601f0160209004810192826105db5760008555610622565b82601f106105f457805160ff1916838001178555610622565b82800160010185558215610622579182015b82811115610621578251825591602001919060010190610606565b5b50905061062f9190610633565b5090565b5b8082111561064c576000816000905550600101610634565b5090565b6000604051905090565b600080fd5b600080fd5b600080fd5b600080fd5b6000601f19601f8301169050919050565b7f4e487b7100000000000000000000000000000000000000000000000000000000600052604160045260246000fd5b6106b78261066e565b810181811067ffffffffffffffff821117156106d6576106d561067f565b5b80604052505050565b60006106e9610650565b90506106f582826106ae565b919050565b600067ffffffffffffffff8211156107155761071461067f565b5b61071e8261066e565b9050602081019050919050565b82818337600083830152505050565b600061074d610748846106fa565b6106df565b90508281526020810184848401111561076957610768610669565b5b61077484828561072b565b509392505050565b600082601f83011261079157610790610664565b5b81356107a184826020860161073a565b91505092915050565b600080604083850312156107c1576107c061065a565b5b600083013567ffffffffffffffff8111156107df576107de61065f565b5b6107eb8582860161077c565b925050602083013567ffffffffffffffff81111561080c5761080b61065f565b5b6108188582860161077c565b9150509250929050565b6000819050919050565b61083581610822565b82525050565b6000602082019050610850600083018461082c565b92915050565b61085f81610822565b811461086a57600080fd5b50565b60008135905061087c81610856565b92915050565b6000602082840312156108985761089761065a565b5b60006108a68482850161086d565b91505092915050565b600081519050919050565b600082825260208201905092915050565b60005b838110156108e95780820151818401526020810190506108ce565b838111156108f8576000848401525b50505050565b6000610909826108af565b61091381856108ba565b93506109238185602086016108cb565b61092c8161066e565b840191505092915050565b60008115159050919050565b61094c81610937565b82525050565b600060a082019050610967600083018861082c565b818103602083015261097981876108fe565b9050818103604083015261098d81866108fe565b905061099c6060830185610943565b6109a9608083018461082c565b9695505050505050565b7f4e487b7100000000000000000000000000000000000000000000000000000000600052601160045260246000fd5b60006109ed82610822565b91507fffffffffffffffffffffffffffffffffffffffffffffffffffffffffffffffff8203610a1f57610a1e6109b3565b5b600182019050919050565b7f4e487b7100000000000000000000000000000000000000000000000000000000600052602260045260246000fd5b60006002820490506001821680610a7157607f821691505b602082108103610a8457610a83610a2a565b5b50919050565b6000604082019050610a9f600083018561082c565b610aac6020830184610943565b939250505056fea26469706673582212206434e3342e1cc10a2a819deab603a6f15f0fac2e0824a4c9d80b56c9ac7893e464736f6c634300080d0033",
  "immutableReferences": {},
  "source": "// SPDX-License-Identifier: MIT\npragma solidity ^0.8.13; // version del lenguaje usado\n\ncontract TasksContract {\n\n    uint public taskCounter = 0;\n\n    constructor(){\n        createTask(\"Test title\", \"Test description\");\n    }\n\n    event TaskCreated( \n        uint256 id,\n        string title,\n        string description,\n        bool done,\n        uint256 createdAt\n    ); // es un tipo de log que se retorna al terminar una transaccion\n\n    event TaskToggleDone(\n        uint256 id,\n        bool done\n    );\n\n    struct Task { // tipo de dato\n        uint256 id;\n        string title;\n        string description;\n        bool done;\n        uint256 createdAt;\n    }\n\n    mapping  (uint256 => Task) public tasks; // estructura de datos parecida al diccionario\n\n    function createTask(string memory _title, string memory _description) public { // al usar memory despues de la definicion del tipo se indica que ese valor no se guardara\n        Task memory _task = Task(taskCounter, _title, _description, false, block.timestamp); //block timestamp devuelve la hora del bloque donde se esta ejecutando el smart contract\n        tasks[taskCounter] = _task;\n        taskCounter++;\n        emit TaskCreated(_task.id, _task.title, _task.description, _task.done, _task.createdAt); // ejecuto un evento con el emit\n    }\n\n    function toggleDone(uint _id) public {\n        Task memory _task = tasks[_id];\n        _task.done = !_task.done;\n        tasks[_id] = _task;\n        emit TaskToggleDone(_task.id, _task.done);\n    }\n\n}\n",
  "sourcePath": "/home/galaoox/develop/keys-cripto-poly/Blockchain/contracts/TasksContract.sol",
  "compiler": {
    "name": "solc",
    "version": "0.8.13+commit.abaa5c0e.Emscripten.clang"
  },
  "schemaVersion": "3.4.10",
  "updatedAt": "2022-11-05T15:01:10.405Z",
  "networkType": "ethereum",
  "devdoc": {
    "kind": "dev",
    "methods": {},
    "version": 1
  },
  "userdoc": {
    "kind": "user",
    "methods": {},
    "version": 1
  }
}